{
  "_format": "hh-sol-artifact-1",
  "contractName": "BoxBlockPaymentEth",
  "sourceName": "contracts/BoxBlockPaymentEth.sol",
  "abi": [
    {
      "inputs": [
        {
          "internalType": "address",
          "name": "to",
          "type": "address"
        }
      ],
      "name": "payEnvolveds",
      "outputs": [],
      "stateMutability": "payable",
      "type": "function"
    }
  ],
  "bytecode": "0x6080604052348015600f57600080fd5b5060958061001e6000396000f3fe608060405260043610601c5760003560e01c8063ab1feac3146021575b600080fd5b602f602c3660046031565b50565b005b600060208284031215604257600080fd5b81356001600160a01b0381168114605857600080fd5b939250505056fea264697066735822122025a5d40e95b933b8140c75930c252335c1ac51e8399093450ace67c8903c7ea464736f6c634300080d0033",
  "linkReferences": {},
  "deployedLinkReferences": {}
}