{
  "_format": "hh-sol-artifact-1",
  "contractName": "BoxBlockNFTMarketplace",
  "sourceName": "contracts/BoxBlock.sol",
  "abi": [
    {
      "inputs": [
        {
          "internalType": "uint256",
          "name": "_platformFee",
          "type": "uint256"
        },
        {
          "internalType": "address",
          "name": "_feeRecipient",
          "type": "address"
        },
        {
          "internalType": "contract IBoxBlockNFTFactory",
          "name": "_boxblockNFTFactory",
          "type": "address"
        }
      ],
      "stateMutability": "nonpayable",
      "type": "constructor"
    },
    {
      "anonymous": false,
      "inputs": [
        {
          "indexed": true,
          "internalType": "address",
          "name": "nft",
          "type": "address"
        },
        {
          "indexed": true,
          "internalType": "uint256",
          "name": "tokenId",
          "type": "uint256"
        },
        {
          "indexed": false,
          "internalType": "address",
          "name": "payToken",
          "type": "address"
        },
        {
          "indexed": false,
          "internalType": "uint256",
          "name": "offerPrice",
          "type": "uint256"
        },
        {
          "indexed": false,
          "internalType": "address",
          "name": "offerer",
          "type": "address"
        },
        {
          "indexed": true,
          "internalType": "address",
          "name": "nftOwner",
          "type": "address"
        }
      ],
      "name": "AcceptedNFT",
      "type": "event"
    },
    {
      "anonymous": false,
      "inputs": [
        {
          "indexed": true,
          "internalType": "address",
          "name": "nft",
          "type": "address"
        },
        {
          "indexed": true,
          "internalType": "uint256",
          "name": "tokenId",
          "type": "uint256"
        },
        {
          "indexed": false,
          "internalType": "address",
          "name": "payToken",
          "type": "address"
        },
        {
          "indexed": false,
          "internalType": "uint256",
          "name": "price",
          "type": "uint256"
        },
        {
          "indexed": false,
          "internalType": "address",
          "name": "seller",
          "type": "address"
        },
        {
          "indexed": true,
          "internalType": "address",
          "name": "buyer",
          "type": "address"
        }
      ],
      "name": "BoughtNFT",
      "type": "event"
    },
    {
      "anonymous": false,
      "inputs": [
        {
          "indexed": true,
          "internalType": "address",
          "name": "nft",
          "type": "address"
        },
        {
          "indexed": true,
          "internalType": "uint256",
          "name": "tokenId",
          "type": "uint256"
        },
        {
          "indexed": false,
          "internalType": "address",
          "name": "payToken",
          "type": "address"
        },
        {
          "indexed": false,
          "internalType": "uint256",
          "name": "offerPrice",
          "type": "uint256"
        },
        {
          "indexed": true,
          "internalType": "address",
          "name": "offerer",
          "type": "address"
        }
      ],
      "name": "CanceledOfferredNFT",
      "type": "event"
    },
    {
      "anonymous": false,
      "inputs": [
        {
          "indexed": true,
          "internalType": "address",
          "name": "nft",
          "type": "address"
        },
        {
          "indexed": true,
          "internalType": "uint256",
          "name": "tokenId",
          "type": "uint256"
        },
        {
          "indexed": false,
          "internalType": "address",
          "name": "payToken",
          "type": "address"
        },
        {
          "indexed": false,
          "internalType": "uint256",
          "name": "price",
          "type": "uint256"
        },
        {
          "indexed": false,
          "internalType": "uint256",
          "name": "minBid",
          "type": "uint256"
        },
        {
          "indexed": false,
          "internalType": "uint256",
          "name": "startTime",
          "type": "uint256"
        },
        {
          "indexed": false,
          "internalType": "uint256",
          "name": "endTime",
          "type": "uint256"
        },
        {
          "indexed": true,
          "internalType": "address",
          "name": "creator",
          "type": "address"
        }
      ],
      "name": "CreatedAuction",
      "type": "event"
    },
    {
      "anonymous": false,
      "inputs": [
        {
          "indexed": true,
          "internalType": "address",
          "name": "nft",
          "type": "address"
        },
        {
          "indexed": true,
          "internalType": "uint256",
          "name": "tokenId",
          "type": "uint256"
        },
        {
          "indexed": false,
          "internalType": "address",
          "name": "payToken",
          "type": "address"
        },
        {
          "indexed": false,
          "internalType": "uint256",
          "name": "price",
          "type": "uint256"
        },
        {
          "indexed": true,
          "internalType": "address",
          "name": "seller",
          "type": "address"
        }
      ],
      "name": "ListedNFT",
      "type": "event"
    },
    {
      "anonymous": false,
      "inputs": [
        {
          "indexed": true,
          "internalType": "address",
          "name": "nft",
          "type": "address"
        },
        {
          "indexed": true,
          "internalType": "uint256",
          "name": "tokenId",
          "type": "uint256"
        },
        {
          "indexed": false,
          "internalType": "address",
          "name": "payToken",
          "type": "address"
        },
        {
          "indexed": false,
          "internalType": "uint256",
          "name": "offerPrice",
          "type": "uint256"
        },
        {
          "indexed": true,
          "internalType": "address",
          "name": "offerer",
          "type": "address"
        }
      ],
      "name": "OfferredNFT",
      "type": "event"
    },
    {
      "anonymous": false,
      "inputs": [
        {
          "indexed": true,
          "internalType": "address",
          "name": "previousOwner",
          "type": "address"
        },
        {
          "indexed": true,
          "internalType": "address",
          "name": "newOwner",
          "type": "address"
        }
      ],
      "name": "OwnershipTransferred",
      "type": "event"
    },
    {
      "anonymous": false,
      "inputs": [
        {
          "indexed": true,
          "internalType": "address",
          "name": "nft",
          "type": "address"
        },
        {
          "indexed": true,
          "internalType": "uint256",
          "name": "tokenId",
          "type": "uint256"
        },
        {
          "indexed": false,
          "internalType": "address",
          "name": "payToken",
          "type": "address"
        },
        {
          "indexed": false,
          "internalType": "uint256",
          "name": "bidPrice",
          "type": "uint256"
        },
        {
          "indexed": true,
          "internalType": "address",
          "name": "bidder",
          "type": "address"
        }
      ],
      "name": "PlacedBid",
      "type": "event"
    },
    {
      "anonymous": false,
      "inputs": [
        {
          "indexed": true,
          "internalType": "address",
          "name": "nft",
          "type": "address"
        },
        {
          "indexed": true,
          "internalType": "uint256",
          "name": "tokenId",
          "type": "uint256"
        },
        {
          "indexed": false,
          "internalType": "address",
          "name": "creator",
          "type": "address"
        },
        {
          "indexed": true,
          "internalType": "address",
          "name": "winner",
          "type": "address"
        },
        {
          "indexed": false,
          "internalType": "uint256",
          "name": "price",
          "type": "uint256"
        },
        {
          "indexed": false,
          "internalType": "address",
          "name": "caller",
          "type": "address"
        }
      ],
      "name": "ResultedAuction",
      "type": "event"
    },
    {
      "inputs": [
        {
          "internalType": "address",
          "name": "_nft",
          "type": "address"
        },
        {
          "internalType": "uint256",
          "name": "_tokenId",
          "type": "uint256"
        },
        {
          "internalType": "address",
          "name": "_offerer",
          "type": "address"
        }
      ],
      "name": "acceptOfferNFT",
      "outputs": [],
      "stateMutability": "nonpayable",
      "type": "function"
    },
    {
      "inputs": [
        {
          "internalType": "address",
          "name": "_token",
          "type": "address"
        }
      ],
      "name": "addPayableToken",
      "outputs": [],
      "stateMutability": "nonpayable",
      "type": "function"
    },
    {
      "inputs": [
        {
          "internalType": "address",
          "name": "_nft",
          "type": "address"
        },
        {
          "internalType": "uint256",
          "name": "_tokenId",
          "type": "uint256"
        },
        {
          "internalType": "address",
          "name": "_payToken",
          "type": "address"
        },
        {
          "internalType": "uint256",
          "name": "_price",
          "type": "uint256"
        }
      ],
      "name": "buy",
      "outputs": [],
      "stateMutability": "payable",
      "type": "function"
    },
    {
      "inputs": [
        {
          "internalType": "uint256",
          "name": "_price",
          "type": "uint256"
        }
      ],
      "name": "calculatePlatformFee",
      "outputs": [
        {
          "internalType": "uint256",
          "name": "",
          "type": "uint256"
        }
      ],
      "stateMutability": "view",
      "type": "function"
    },
    {
      "inputs": [
        {
          "internalType": "uint256",
          "name": "_royalty",
          "type": "uint256"
        },
        {
          "internalType": "uint256",
          "name": "_price",
          "type": "uint256"
        }
      ],
      "name": "calculateRoyalty",
      "outputs": [
        {
          "internalType": "uint256",
          "name": "",
          "type": "uint256"
        }
      ],
      "stateMutability": "pure",
      "type": "function"
    },
    {
      "inputs": [
        {
          "internalType": "address",
          "name": "_nft",
          "type": "address"
        },
        {
          "internalType": "uint256",
          "name": "_tokenId",
          "type": "uint256"
        }
      ],
      "name": "cancelAuction",
      "outputs": [],
      "stateMutability": "nonpayable",
      "type": "function"
    },
    {
      "inputs": [
        {
          "internalType": "address",
          "name": "_nft",
          "type": "address"
        },
        {
          "internalType": "uint256",
          "name": "_tokenId",
          "type": "uint256"
        }
      ],
      "name": "cancelListedNFT",
      "outputs": [],
      "stateMutability": "nonpayable",
      "type": "function"
    },
    {
      "inputs": [
        {
          "internalType": "address",
          "name": "_nft",
          "type": "address"
        },
        {
          "internalType": "uint256",
          "name": "_tokenId",
          "type": "uint256"
        }
      ],
      "name": "cancelOffer",
      "outputs": [],
      "stateMutability": "nonpayable",
      "type": "function"
    },
    {
      "inputs": [
        {
          "internalType": "address",
          "name": "_feeRecipient",
          "type": "address"
        }
      ],
      "name": "changeFeeRecipient",
      "outputs": [],
      "stateMutability": "nonpayable",
      "type": "function"
    },
    {
      "inputs": [
        {
          "internalType": "address",
          "name": "_nft",
          "type": "address"
        },
        {
          "internalType": "uint256",
          "name": "_tokenId",
          "type": "uint256"
        }
      ],
      "name": "checkAuctionNft",
      "outputs": [
        {
          "internalType": "bool",
          "name": "",
          "type": "bool"
        }
      ],
      "stateMutability": "view",
      "type": "function"
    },
    {
      "inputs": [
        {
          "internalType": "address",
          "name": "_payableToken",
          "type": "address"
        }
      ],
      "name": "checkIsPayableToken",
      "outputs": [
        {
          "internalType": "bool",
          "name": "",
          "type": "bool"
        }
      ],
      "stateMutability": "view",
      "type": "function"
    },
    {
      "inputs": [
        {
          "internalType": "address",
          "name": "_nft",
          "type": "address"
        },
        {
          "internalType": "uint256",
          "name": "_tokenId",
          "type": "uint256"
        }
      ],
      "name": "checkListedNft",
      "outputs": [
        {
          "internalType": "bool",
          "name": "",
          "type": "bool"
        }
      ],
      "stateMutability": "view",
      "type": "function"
    },
    {
      "inputs": [
        {
          "internalType": "address",
          "name": "_nft",
          "type": "address"
        },
        {
          "internalType": "uint256",
          "name": "_tokenId",
          "type": "uint256"
        }
      ],
      "name": "completeBid",
      "outputs": [],
      "stateMutability": "nonpayable",
      "type": "function"
    },
    {
      "inputs": [
        {
          "internalType": "address",
          "name": "_nft",
          "type": "address"
        },
        {
          "internalType": "uint256",
          "name": "_tokenId",
          "type": "uint256"
        },
        {
          "internalType": "address",
          "name": "_payToken",
          "type": "address"
        },
        {
          "internalType": "uint256",
          "name": "_price",
          "type": "uint256"
        },
        {
          "internalType": "uint256",
          "name": "_minBid",
          "type": "uint256"
        },
        {
          "internalType": "uint256",
          "name": "_startTime",
          "type": "uint256"
        },
        {
          "internalType": "uint256",
          "name": "_endTime",
          "type": "uint256"
        }
      ],
      "name": "createAuction",
      "outputs": [],
      "stateMutability": "nonpayable",
      "type": "function"
    },
    {
      "inputs": [
        {
          "internalType": "address",
          "name": "_nft",
          "type": "address"
        },
        {
          "internalType": "uint256",
          "name": "_tokenId",
          "type": "uint256"
        },
        {
          "internalType": "address",
          "name": "_payToken",
          "type": "address"
        },
        {
          "internalType": "uint256",
          "name": "_price",
          "type": "uint256"
        }
      ],
      "name": "createSell",
      "outputs": [],
      "stateMutability": "nonpayable",
      "type": "function"
    },
    {
      "inputs": [
        {
          "internalType": "address",
          "name": "_nft",
          "type": "address"
        },
        {
          "internalType": "uint256",
          "name": "_tokenId",
          "type": "uint256"
        }
      ],
      "name": "getAuctionedNFT",
      "outputs": [
        {
          "components": [
            {
              "internalType": "address",
              "name": "nft",
              "type": "address"
            },
            {
              "internalType": "uint256",
              "name": "tokenId",
              "type": "uint256"
            },
            {
              "internalType": "address",
              "name": "creator",
              "type": "address"
            },
            {
              "internalType": "address",
              "name": "payToken",
              "type": "address"
            },
            {
              "internalType": "uint256",
              "name": "initialPrice",
              "type": "uint256"
            },
            {
              "internalType": "uint256",
              "name": "minBid",
              "type": "uint256"
            },
            {
              "internalType": "uint256",
              "name": "startTime",
              "type": "uint256"
            },
            {
              "internalType": "uint256",
              "name": "endTime",
              "type": "uint256"
            },
            {
              "internalType": "address",
              "name": "lastBidder",
              "type": "address"
            },
            {
              "internalType": "uint256",
              "name": "heighestBid",
              "type": "uint256"
            },
            {
              "internalType": "address",
              "name": "winner",
              "type": "address"
            },
            {
              "internalType": "bool",
              "name": "success",
              "type": "bool"
            }
          ],
          "internalType": "struct BoxBlockNFTMarketplace.AuctionNFT",
          "name": "",
          "type": "tuple"
        }
      ],
      "stateMutability": "view",
      "type": "function"
    },
    {
      "inputs": [
        {
          "internalType": "address",
          "name": "_nft",
          "type": "address"
        }
      ],
      "name": "getAuctionedNFTs",
      "outputs": [
        {
          "components": [
            {
              "internalType": "address",
              "name": "nft",
              "type": "address"
            },
            {
              "internalType": "uint256",
              "name": "tokenId",
              "type": "uint256"
            },
            {
              "internalType": "address",
              "name": "creator",
              "type": "address"
            },
            {
              "internalType": "address",
              "name": "payToken",
              "type": "address"
            },
            {
              "internalType": "uint256",
              "name": "initialPrice",
              "type": "uint256"
            },
            {
              "internalType": "uint256",
              "name": "minBid",
              "type": "uint256"
            },
            {
              "internalType": "uint256",
              "name": "startTime",
              "type": "uint256"
            },
            {
              "internalType": "uint256",
              "name": "endTime",
              "type": "uint256"
            },
            {
              "internalType": "address",
              "name": "lastBidder",
              "type": "address"
            },
            {
              "internalType": "uint256",
              "name": "heighestBid",
              "type": "uint256"
            },
            {
              "internalType": "address",
              "name": "winner",
              "type": "address"
            },
            {
              "internalType": "bool",
              "name": "success",
              "type": "bool"
            }
          ],
          "internalType": "struct BoxBlockNFTMarketplace.AuctionNFT[]",
          "name": "",
          "type": "tuple[]"
        }
      ],
      "stateMutability": "view",
      "type": "function"
    },
    {
      "inputs": [
        {
          "internalType": "address",
          "name": "_nft",
          "type": "address"
        },
        {
          "internalType": "uint256",
          "name": "_tokenId",
          "type": "uint256"
        }
      ],
      "name": "getListedNFT",
      "outputs": [
        {
          "components": [
            {
              "internalType": "address",
              "name": "nft",
              "type": "address"
            },
            {
              "internalType": "uint256",
              "name": "tokenId",
              "type": "uint256"
            },
            {
              "internalType": "address",
              "name": "seller",
              "type": "address"
            },
            {
              "internalType": "address",
              "name": "payToken",
              "type": "address"
            },
            {
              "internalType": "uint256",
              "name": "price",
              "type": "uint256"
            },
            {
              "internalType": "bool",
              "name": "sold",
              "type": "bool"
            }
          ],
          "internalType": "struct BoxBlockNFTMarketplace.ListNFT",
          "name": "",
          "type": "tuple"
        }
      ],
      "stateMutability": "view",
      "type": "function"
    },
    {
      "inputs": [
        {
          "internalType": "address",
          "name": "_nft",
          "type": "address"
        }
      ],
      "name": "getListedNFTs",
      "outputs": [
        {
          "components": [
            {
              "internalType": "address",
              "name": "nft",
              "type": "address"
            },
            {
              "internalType": "uint256",
              "name": "tokenId",
              "type": "uint256"
            },
            {
              "internalType": "address",
              "name": "seller",
              "type": "address"
            },
            {
              "internalType": "address",
              "name": "payToken",
              "type": "address"
            },
            {
              "internalType": "uint256",
              "name": "price",
              "type": "uint256"
            },
            {
              "internalType": "bool",
              "name": "sold",
              "type": "bool"
            }
          ],
          "internalType": "struct BoxBlockNFTMarketplace.ListNFT[]",
          "name": "",
          "type": "tuple[]"
        }
      ],
      "stateMutability": "view",
      "type": "function"
    },
    {
      "inputs": [],
      "name": "getPayableTokens",
      "outputs": [
        {
          "internalType": "address[]",
          "name": "",
          "type": "address[]"
        }
      ],
      "stateMutability": "view",
      "type": "function"
    },
    {
      "inputs": [
        {
          "internalType": "address",
          "name": "_nft",
          "type": "address"
        },
        {
          "internalType": "uint256",
          "name": "_tokenId",
          "type": "uint256"
        },
        {
          "internalType": "address",
          "name": "_payToken",
          "type": "address"
        },
        {
          "internalType": "uint256",
          "name": "_offerPrice",
          "type": "uint256"
        }
      ],
      "name": "makeOffer",
      "outputs": [],
      "stateMutability": "nonpayable",
      "type": "function"
    },
    {
      "inputs": [],
      "name": "owner",
      "outputs": [
        {
          "internalType": "address",
          "name": "",
          "type": "address"
        }
      ],
      "stateMutability": "view",
      "type": "function"
    },
    {
      "inputs": [
        {
          "internalType": "address",
          "name": "",
          "type": "address"
        }
      ],
      "name": "payableToken",
      "outputs": [
        {
          "internalType": "bool",
          "name": "",
          "type": "bool"
        }
      ],
      "stateMutability": "view",
      "type": "function"
    },
    {
      "inputs": [
        {
          "internalType": "address",
          "name": "_nft",
          "type": "address"
        },
        {
          "internalType": "uint256",
          "name": "_tokenId",
          "type": "uint256"
        },
        {
          "internalType": "uint256",
          "name": "_bidPrice",
          "type": "uint256"
        }
      ],
      "name": "placeBid",
      "outputs": [],
      "stateMutability": "nonpayable",
      "type": "function"
    },
    {
      "inputs": [],
      "name": "renounceOwnership",
      "outputs": [],
      "stateMutability": "nonpayable",
      "type": "function"
    },
    {
      "inputs": [
        {
          "internalType": "address",
          "name": "newOwner",
          "type": "address"
        }
      ],
      "name": "transferOwnership",
      "outputs": [],
      "stateMutability": "nonpayable",
      "type": "function"
    },
    {
      "inputs": [
        {
          "internalType": "uint256",
          "name": "_platformFee",
          "type": "uint256"
        }
      ],
      "name": "updatePlatformFee",
      "outputs": [],
      "stateMutability": "nonpayable",
      "type": "function"
    }
  ],
  "bytecode": "0x60a06040523480156200001157600080fd5b506040516200425f3803806200425f83398101604081905262000034916200012f565b6200003f33620000c6565b600180556127108311156200009a5760405162461bcd60e51b815260206004820152601a60248201527f63616e2774206d6f7265207468616e2031302070657263656e74000000000000604482015260640160405180910390fd5b600492909255600580546001600160a01b0319166001600160a01b039283161790551660805262000177565b600080546001600160a01b038381166001600160a01b0319831681178455604051919092169283917f8be0079c531659141344cd1fd0a4f28419497f9722a3daafe3b4186f6b6457e09190a35050565b6001600160a01b03811681146200012c57600080fd5b50565b6000806000606084860312156200014557600080fd5b835192506020840151620001598162000116565b60408501519092506200016c8162000116565b809150509250925092565b6080516140cc62000193600039600061245901526140cc6000f3fe60806040526004361061019c5760003560e01c8063715018a6116100ec578063aa0b59881161008a578063dc3c3dfd11610064578063dc3c3dfd146104db578063eb95711b146105ac578063f2fde38b146105cc578063faad8e8b146105ec57600080fd5b8063aa0b598814610488578063b0708a35146104a8578063b3ffb760146104c857600080fd5b80638da5cb5b116100c65780638da5cb5b146103da57806390b7b5bb146104025780639cc938e2146104225780639d8f4f551461044f57600080fd5b8063715018a614610385578063859b97fe1461039a57806387c4466d146103ba57600080fd5b806323604071116101595780633bbc47f0116101335780633bbc47f0146102f6578063465c731f146103235780635b5b3314146103435780636805e8731461036557600080fd5b806323604071146102965780633096fe2d146102b657806339cfb09d146102d657600080fd5b806304717aca146101a1578063058a56ac146101c35780630cbab4f7146101e3578063122b064514610216578063132013851461023657806319f790f014610256575b600080fd5b3480156101ad57600080fd5b506101c16101bc366004613b11565b610619565b005b3480156101cf57600080fd5b506101c16101de366004613b46565b610a0d565b3480156101ef57600080fd5b506102036101fe366004613b72565b610d2f565b6040519081526020015b60405180910390f35b34801561022257600080fd5b506101c1610231366004613b8b565b610d52565b34801561024257600080fd5b506101c1610251366004613bf0565b61125b565b34801561026257600080fd5b50610286610271366004613bf0565b60066020526000908152604090205460ff1681565b604051901515815260200161020d565b3480156102a257600080fd5b506101c16102b1366004613bf0565b611370565b3480156102c257600080fd5b506101c16102d1366004613c0d565b6113e5565b3480156102e257600080fd5b506101c16102f1366004613b46565b611762565b34801561030257600080fd5b50610316610311366004613b46565b611cad565b60405161020d9190613d14565b34801561032f57600080fd5b506101c161033e366004613b46565b611d75565b34801561034f57600080fd5b50610358611fa3565b60405161020d9190613d23565b34801561037157600080fd5b50610286610380366004613b46565b612005565b34801561039157600080fd5b506101c1612091565b3480156103a657600080fd5b506101c16103b5366004613b46565b6120a5565b3480156103c657600080fd5b506101c16103d5366004613c0d565b612438565b3480156103e657600080fd5b506000546040516001600160a01b03909116815260200161020d565b34801561040e57600080fd5b5061028661041d366004613b46565b6127ff565b34801561042e57600080fd5b5061044261043d366004613bf0565b6128d1565b60405161020d9190613db9565b34801561045b57600080fd5b5061028661046a366004613bf0565b6001600160a01b031660009081526006602052604090205460ff1690565b34801561049457600080fd5b506101c16104a3366004613b72565b612ad0565b3480156104b457600080fd5b506102036104c3366004613dfb565b612b2f565b6101c16104d6366004613c0d565b612b4f565b3480156104e757600080fd5b5061059f6104f6366004613b46565b6040805160c081018252600080825260208201819052918101829052606081018290526080810182905260a0810191909152506001600160a01b03918216600090815260086020908152604080832093835292815290829020825160c081018452815485168152600182015492810192909252600281015484169282019290925260038201549092166060830152600481015460808301526005015460ff16151560a082015290565b60405161020d9190613e1d565b3480156105b857600080fd5b506101c16105c7366004613e2b565b613078565b3480156105d857600080fd5b506101c16105e7366004613bf0565b6136de565b3480156105f857600080fd5b5061060c610607366004613bf0565b613757565b60405161020d9190613e6d565b6001600160a01b038381166000908152600a6020818152604080842087855282529283902083516101808101855281548616808252600183015493820193909352600282015486169481019490945260038101548516606085015260048101546080850152600581015460a0850152600681015460c0850152600781015460e085015260088101548516610100850152600981015461012085015290910154928316610140830152600160a01b90920460ff1615156101608201528491849190158015906106ea5750806101600151155b61070f5760405162461bcd60e51b815260040161070690613eb0565b60405180910390fd5b6001600160a01b0386166000908152600a602090815260408083208884529091529020600601544210156107795760405162461bcd60e51b8152602060048201526011602482015270185d58dd1a5bdb881b9bdd081cdd185c9d607a1b6044820152606401610706565b6001600160a01b0386166000908152600a602090815260408083208884529091529020600701544211156107df5760405162461bcd60e51b815260206004820152600d60248201526c185d58dd1a5bdb88195b991959609a1b6044820152606401610706565b6001600160a01b0386166000908152600a60209081526040808320888452909152902060058101546009909101546108179190613efd565b8410156108665760405162461bcd60e51b815260206004820152601760248201527f6c657373207468616e206d696e206269642070726963650000000000000000006044820152606401610706565b6001600160a01b038087166000908152600a6020908152604080832089845290915290819020600381015491516323b872dd60e01b81529092919091169081906323b872dd906108be90339030908b90600401613f15565b6020604051808303816000875af11580156108dd573d6000803e3d6000fd5b505050506040513d601f19601f820116820180604052508101906109019190613f39565b5060088201546001600160a01b031615610998576008820154600983015460405163a9059cbb60e01b81526001600160a01b039283169284169063a9059cbb906109519085908590600401613f5b565b6020604051808303816000875af1158015610970573d6000803e3d6000fd5b505050506040513d601f19601f820116820180604052508101906109949190613f39565b5050505b6008820180546001600160a01b0319163390811790915560098301879055600383015460405189916001600160a01b038c8116927f1366a066e0b6138abe26f53c966c9de1cfc0f79f586100f5c785c9a5ea198905926109fb9216908c90613f5b565b60405180910390a45050505050505050565b6001600160a01b03808316600090815260096020908152604080832085845282528083203380855290835292819020815160c08101835281548616815260018201549381019390935260028101548516918301919091526003810154909316606082015260048301546080820181905260059093015460ff16151560a082015284928492919015801590610aad575060408101516001600160a01b031615155b610aec5760405162461bcd60e51b815260206004820152601060248201526f1b9bdd081bd999995c9c9959081b999d60821b6044820152606401610706565b6001600160a01b03808716600090815260096020908152604080832089845282528083203380855290835292819020815160c08101835281548616815260018201549381019390935260028101548516918301829052600381015490941660608301526004840154608083015260059093015460ff16151560a08201529114610ba55760405162461bcd60e51b815260206004820152600b60248201526a3737ba1037b33332b932b960a91b6044820152606401610706565b8060a0015115610bf05760405162461bcd60e51b81526020600482015260166024820152751bd999995c88185b1c9958591e481858d8d95c1d195960521b6044820152606401610706565b6001600160a01b0380881660009081526009602090815260408083208a8452825280832033845290915280822080546001600160a01b0319908116825560018201849055600282018054821690556003820180549091169055600480820193909355600501805460ff191690556060840151848201516080860151925163a9059cbb60e01b8152919094169363a9059cbb93610c8e93919201613f5b565b6020604051808303816000875af1158015610cad573d6000803e3d6000fd5b505050506040513d601f19601f82011682018060405250810190610cd19190613f39565b5060208101518151606083015160808401516040513394936001600160a01b0316927fefb35510217b7f826a226a55de4a753e6944118842f02b483169782e250c291c92610d1e92613f5b565b60405180910390a450505050505050565b600061271060045483610d429190613f74565b610d4c9190613f93565b92915050565b846001600160a01b03811615801590610d8357506001600160a01b03811660009081526006602052604090205460ff165b610d9f5760405162461bcd60e51b815260040161070690613fb5565b6001600160a01b038881166000908152600a602081815260408084208c855282529283902083516101808101855281548616808252600183015493820193909352600282015486169481019490945260038101548516606085015260048101546080850152600581015460a0850152600681015460c0850152600781015460e085015260088101548516610100850152600981015461012085015290910154928316610140830152600160a01b90920460ff16151561016082015289918991901580610e6d57508061016001515b610e895760405162461bcd60e51b815260040161070690613eb0565b6040516331a9108f60e11b8152600481018b90528b9033906001600160a01b03831690636352211e90602401602060405180830381865afa158015610ed2573d6000803e3d6000fd5b505050506040513d601f19601f82011682018060405250810190610ef69190613fe0565b6001600160a01b031614610f3c5760405162461bcd60e51b815260206004820152600d60248201526c3737ba1037333a1037bbb732b960991b6044820152606401610706565b868611610f7e5760405162461bcd60e51b815260206004820152601060248201526f696e76616c696420656e642074696d6560801b6044820152606401610706565b806001600160a01b031663f5537ede33308e6040518463ffffffff1660e01b8152600401610fae93929190613f15565b600060405180830381600087803b158015610fc857600080fd5b505af1158015610fdc573d6000803e3d6000fd5b505050506040518061018001604052808d6001600160a01b031681526020018c8152602001336001600160a01b031681526020018b6001600160a01b031681526020018a815260200189815260200188815260200187815260200160006001600160a01b031681526020018a815260200160006001600160a01b0316815260200160001515815250600a60008e6001600160a01b03166001600160a01b0316815260200190815260200160002060008d815260200190815260200160002060008201518160000160006101000a8154816001600160a01b0302191690836001600160a01b031602179055506020820151816001015560408201518160020160006101000a8154816001600160a01b0302191690836001600160a01b0316021790555060608201518160030160006101000a8154816001600160a01b0302191690836001600160a01b031602179055506080820151816004015560a0820151816005015560c0820151816006015560e082015181600701556101008201518160080160006101000a8154816001600160a01b0302191690836001600160a01b03160217905550610120820151816009015561014082015181600a0160006101000a8154816001600160a01b0302191690836001600160a01b0316021790555061016082015181600a0160146101000a81548160ff0219169083151502179055509050506111ec600280546001019055565b604080516001600160a01b038c81168252602082018c90529181018a9052606081018990526080810188905233918d91908f16907f15888491dd8f256e5e28ceaf57c0db6819ae0399cc259e9764887563223f7acd9060a00160405180910390a4505050505050505050505050565b61126361396b565b6001600160a01b0381166112a95760405162461bcd60e51b815260206004820152600d60248201526c34b73b30b634b2103a37b5b2b760991b6044820152606401610706565b6001600160a01b03811660009081526006602052604090205460ff161561130a5760405162461bcd60e51b815260206004820152601560248201527430b63932b0b23c903830bcb0b13632903a37b5b2b760591b6044820152606401610706565b6001600160a01b03166000818152600660205260408120805460ff191660019081179091556007805491820181559091527fa66cc928b5edb82af9bd49922954155ab7b0942694bea4ce44661d9a8736c6880180546001600160a01b0319169091179055565b61137861396b565b6001600160a01b0381166113c35760405162461bcd60e51b815260206004820152601260248201527163616e27742062652030206164647265737360701b6044820152606401610706565b600580546001600160a01b0319166001600160a01b0392909216919091179055565b6001600160a01b038085166000908152600860209081526040808320878452825291829020825160c08101845281548516815260018201549281019290925260028101548416928201839052600381015490931660608201526004830154608082015260059092015460ff16151560a0830152859185911580159061146c57508060a00151155b6114885760405162461bcd60e51b815260040161070690613ffd565b600084116114ca5760405162461bcd60e51b815260206004820152600f60248201526e070726963652063616e206e6f74203608c1b6044820152606401610706565b6001600160a01b0380881660009081526008602090815260408083208a8452825291829020825160c0810184528154851681526001820154928101929092526002810154841682840152600381015490931660608201819052600480850154608084015260059094015460ff16151560a083015291516323b872dd60e01b815290926323b872dd9161156291339130918b9101613f15565b6020604051808303816000875af1158015611581573d6000803e3d6000fd5b505050506040513d601f19601f820116820180604052508101906115a59190613f39565b506040518060c0016040528082600001516001600160a01b0316815260200182602001518152602001336001600160a01b03168152602001876001600160a01b0316815260200186815260200160001515815250600960008a6001600160a01b03166001600160a01b0316815260200190815260200160002060008981526020019081526020016000206000336001600160a01b03166001600160a01b0316815260200190815260200160002060008201518160000160006101000a8154816001600160a01b0302191690836001600160a01b031602179055506020820151816001015560408201518160020160006101000a8154816001600160a01b0302191690836001600160a01b0316021790555060608201518160030160006101000a8154816001600160a01b0302191690836001600160a01b031602179055506080820151816004015560a08201518160050160006101000a81548160ff021916908315150217905550905050336001600160a01b0316816020015182600001516001600160a01b03167f68440885b8f55b92e46c64e6e8e8e58f2cdfeb729aef39fae95e9ac0755721298460600151896040516109fb929190613f5b565b6001600160a01b0382166000908152600a602081815260408084208585529091529091200154600160a01b900460ff16156117d25760405162461bcd60e51b815260206004820152601060248201526f185b1c9958591e481c995cdd5b1d195960821b6044820152606401610706565b6000546001600160a01b031633148061181257506001600160a01b038281166000908152600a602090815260408083208584529091529020600201541633145b8061184457506001600160a01b038281166000908152600a602090815260408083208584529091529020600801541633145b6118905760405162461bcd60e51b815260206004820152601d60248201527f6e6f742063726561746f722c2077696e6e65722c206f72206f776e65720000006044820152606401610706565b6001600160a01b0382166000908152600a6020908152604080832084845290915290206007015442116118f95760405162461bcd60e51b8152602060048201526011602482015270185d58dd1a5bdb881b9bdd08195b991959607a1b6044820152606401610706565b6001600160a01b038083166000818152600a60208181526040808420878552825280842060038101548154948201805460028401546001600160a81b0319909116908a1617600160a01b179055825163257b706360e21b815292519197908116969416948994909390926395edc18c92600480830193928290030181865afa158015611989573d6000803e3d6000fd5b505050506040513d601f19601f820116820180604052508101906119ad9190613fe0565b90506000826001600160a01b031663820bdcdc6040518163ffffffff1660e01b8152600401602060405180830381865afa1580156119ef573d6000803e3d6000fd5b505050506040513d601f19601f82011682018060405250810190611a139190614021565b6009870154909150808215611ab1576000611a2e8484612b2f565b60405163a9059cbb60e01b81529091506001600160a01b0389169063a9059cbb90611a5f9088908590600401613f5b565b6020604051808303816000875af1158015611a7e573d6000803e3d6000fd5b505050506040513d601f19601f82011682018060405250810190611aa29190613f39565b50611aad818361403a565b9150505b6000611abc83610d2f565b60055460405163a9059cbb60e01b81529192506001600160a01b03808b169263a9059cbb92611af19216908590600401613f5b565b6020604051808303816000875af1158015611b10573d6000803e3d6000fd5b505050506040513d601f19601f82011682018060405250810190611b349190613f39565b5060028901546001600160a01b03808a169163a9059cbb9116611b57848661403a565b6040518363ffffffff1660e01b8152600401611b74929190613f5b565b6020604051808303816000875af1158015611b93573d6000803e3d6000fd5b505050506040513d601f19601f82011682018060405250810190611bb79190613f39565b50600889015460018a01546040516323b872dd60e01b81526001600160a01b038a8116936323b872dd93611bf393309390921691600401613f15565b600060405180830381600087803b158015611c0d57600080fd5b505af1158015611c21573d6000803e3d6000fd5b50505050611c2f60026139c5565b611c3d600380546001019055565b600889015460028a015460098b0154604080516001600160a01b03938416815260208101929092523390820152918116918c918e16907f69b9e47c169c6463a921b70743b7d6705d5ee0b376296ae9bf0b1a3678fb3f5d9060600160405180910390a45050505050505050505050565b611cb5613a6c565b506001600160a01b038281166000908152600a60208181526040808420868552825292839020835161018081018552815486168152600182015492810192909252600281015485169382019390935260038301548416606082015260048301546080820152600583015460a0820152600683015460c0820152600783015460e0820152600883015484166101008201526009830154610120820152910154918216610140820152600160a01b90910460ff16151561016082015292915050565b6001600160a01b038083166000908152600860209081526040808320858452825291829020825160c08101845281548516815260018201549281019290925260028101548416928201839052600381015490931660608201526004830154608082015260059092015460ff16151560a08301528391839115801590611dfc57508060a00151155b611e185760405162461bcd60e51b815260040161070690613ffd565b6001600160a01b038086166000908152600860209081526040808320888452825291829020825160c08101845281548516815260018201549281019290925260028101548416928201839052600381015490931660608201526004830154608082015260059092015460ff16151560a08301523314611ecc5760405162461bcd60e51b815260206004820152601060248201526f3737ba103634b9ba32b21037bbb732b960811b6044820152606401610706565b6040516323b872dd60e01b81526001600160a01b038716906323b872dd90611efc90309033908a90600401613f15565b600060405180830381600087803b158015611f1657600080fd5b505af1158015611f2a573d6000803e3d6000fd5b5050506001600160a01b0387166000908152600860209081526040808320898452909152812080546001600160a01b031990811682556001820183905560028083018054831690556003830180549092169091556004820192909255600501805460ff19169055611f9b91506139c5565b505050505050565b60606007805480602002602001604051908101604052809291908181526020018280548015611ffb57602002820191906000526020600020905b81546001600160a01b03168152600190910190602001808311611fdd575b5050505050905090565b6001600160a01b0380831660009081526008602090815260408083208584528252808320815160c08101835281548616815260018201549381019390935260028101548516918301829052600381015490941660608301526004840154608083015260059093015460ff16151560a082015290911580159061208957508060a00151155b949350505050565b61209961396b565b6120a36000613a1c565b565b6001600160a01b038281166000908152600a6020818152604080842086855282529283902083516101808101855281548616808252600183015493820193909352600282015486169481019490945260038101548516606085015260048101546080850152600581015460a0850152600681015460c0850152600781015460e085015260088101548516610100850152600981015461012085015290910154928316610140830152600160a01b90920460ff1615156101608201528391839190158015906121765750806101600151155b6121925760405162461bcd60e51b815260040161070690613eb0565b6001600160a01b038581166000908152600a602081815260408084208985528252928390208351610180810185528154861681526001820154928101929092526002810154851693820184905260038101548516606083015260048101546080830152600581015460a0830152600681015460c0830152600781015460e083015260088101548516610100830152600981015461012083015290910154928316610140820152600160a01b90920460ff161515610160830152331461228f5760405162461bcd60e51b81526020600482015260136024820152723737ba1030bab1ba34b7b71031b932b0ba37b960691b6044820152606401610706565b8060c0015142106122e25760405162461bcd60e51b815260206004820152601760248201527f61756374696f6e20616c726561647920737461727465640000000000000000006044820152606401610706565b6101008101516001600160a01b0316156123345760405162461bcd60e51b815260206004820152601360248201527230b63932b0b23c903430bb32903134b23232b960691b6044820152606401610706565b6040516323b872dd60e01b815286906001600160a01b038216906323b872dd9061236690309033908b90600401613f15565b600060405180830381600087803b15801561238057600080fd5b505af1158015612394573d6000803e3d6000fd5b5050506001600160a01b0388166000908152600a602081815260408084208b8552909152822080546001600160a01b03199081168255600182018490556002808301805483169055600383018054831690556004830185905560058301859055600683018590556007830185905560088301805490921690915560098201939093550180546001600160a81b031916905561242f91506139c5565b50505050505050565b60405163e2ef611760e01b81526001600160a01b03808616600483015285917f00000000000000000000000000000000000000000000000000000000000000009091169063e2ef611790602401602060405180830381865afa1580156124a2573d6000803e3d6000fd5b505050506040513d601f19601f820116820180604052508101906124c69190613f39565b6125055760405162461bcd60e51b815260206004820152601060248201526f1b9bdd08109bde109b1bd8dac813919560821b6044820152606401610706565b826001600160a01b0381161580159061253657506001600160a01b03811660009081526006602052604090205460ff165b6125525760405162461bcd60e51b815260040161070690613fb5565b6040516331a9108f60e11b81526004810186905286906000906001600160a01b03831690636352211e90602401602060405180830381865afa15801561259c573d6000803e3d6000fd5b505050506040513d601f19601f820116820180604052508101906125c09190613fe0565b90506001600160a01b038116331461260a5760405162461bcd60e51b815260206004820152600d60248201526c3737ba1037333a1037bbb732b960991b6044820152606401610706565b604051637aa9bf6f60e11b81526001600160a01b0383169063f5537ede9061263a90849030908c90600401613f15565b600060405180830381600087803b15801561265457600080fd5b505af1158015612668573d6000803e3d6000fd5b505050506040518060c00160405280896001600160a01b03168152602001888152602001336001600160a01b03168152602001876001600160a01b0316815260200186815260200160001515815250600860008a6001600160a01b03166001600160a01b03168152602001908152602001600020600089815260200190815260200160002060008201518160000160006101000a8154816001600160a01b0302191690836001600160a01b031602179055506020820151816001015560408201518160020160006101000a8154816001600160a01b0302191690836001600160a01b0316021790555060608201518160030160006101000a8154816001600160a01b0302191690836001600160a01b031602179055506080820151816004015560a08201518160050160006101000a81548160ff0219169083151502179055509050506127b9600280546001019055565b336001600160a01b031687896001600160a01b03167fd3c529cf7f810e6effd6ee492c3c44aaaeaab46bb7b4d6d3f01d0aecf487f6b989896040516109fb929190613f5b565b6001600160a01b038281166000908152600a60208181526040808420868552825280842081516101808101835281548716808252600183015494820194909452600282015487169281019290925260038101548616606083015260048101546080830152600581015460a0830152600681015460c0830152600781015460e083015260088101548616610100830152600981015461012083015290920154938416610140830152600160a01b90930460ff16151561016082015290911580159061208957506101600151159392505050565b606060008060008490506000816001600160a01b031663d477a7126040518163ffffffff1660e01b8152600401602060405180830381865afa15801561291b573d6000803e3d6000fd5b505050506040513d601f19601f8201168201806040525081019061293f9190614021565b905060005b8181101561297b576129568782612005565b1561296957612966600186613efd565b94505b8061297381614051565b915050612944565b5060008467ffffffffffffffff8111156129975761299761406a565b6040519080825280602002602001820160405280156129f757816020015b6040805160c08101825260008082526020808301829052928201819052606082018190526080820181905260a082015282526000199092019101816129b55790505b50905060005b82811015612ac557612a0f8882612005565b15612ab3576001600160a01b038089166000908152600860209081526040808320858452825291829020825160c081018452815485168152600182015492810192909252600281015484169282019290925260038201549092166060830152600481015460808301526005015460ff16151560a08201528251839087908110612a9a57612a9a614080565b6020908102919091010152612ab0600186613efd565b94505b80612abd81614051565b9150506129fd565b509695505050505050565b612ad861396b565b612710811115612b2a5760405162461bcd60e51b815260206004820152601a60248201527f63616e2774206d6f7265207468616e2031302070657263656e740000000000006044820152606401610706565b600455565b6000612710612b3e8484613f74565b612b489190613f93565b9392505050565b6001600160a01b038085166000908152600860209081526040808320878452825291829020825160c08101845281548516815260018201549281019290925260028101548416928201839052600381015490931660608201526004830154608082015260059092015460ff16151560a08301528591859115801590612bd657508060a00151155b612bf25760405162461bcd60e51b815260040161070690613ffd565b6001600160a01b0380881660009081526008602090815260408083208a845290915290206003810154909190811690871615801590612c40575060038201546001600160a01b038881169116145b612c5c5760405162461bcd60e51b815260040161070690613fb5565b600582015460ff1615612ca45760405162461bcd60e51b815260206004820152601060248201526f1b999d08185b1c9958591e481cdbdb1960821b6044820152606401610706565b8160040154861015612ce85760405162461bcd60e51b815260206004820152600d60248201526c696e76616c696420707269636560981b6044820152606401610706565b8160040154341015612d2c5760405162461bcd60e51b815260206004820152600d60248201526c696e76616c696420707269636560981b6044820152606401610706565b60058201805460ff1916600117905581546040805163257b706360e21b81529051889283926001600160a01b039091169160009183916395edc18c916004808201926020929091908290030181865afa158015612d8d573d6000803e3d6000fd5b505050506040513d601f19601f82011682018060405250810190612db19190613fe0565b90506000826001600160a01b031663820bdcdc6040518163ffffffff1660e01b8152600401602060405180830381865afa158015612df3573d6000803e3d6000fd5b505050506040513d601f19601f82011682018060405250810190612e179190614021565b90508015612e9c576000612e2b828d612b2f565b60405163ab1feac360e01b81526001600160a01b0385811660048301529192509088169063ab1feac39083906024016000604051808303818588803b158015612e7357600080fd5b505af1158015612e87573d6000803e3d6000fd5b50505050508086612e98919061403a565b9550505b6000612ea78c610d2f565b60055460405163ab1feac360e01b81526001600160a01b03918216600482015291925088169063ab1feac39083906024016000604051808303818588803b158015612ef157600080fd5b505af1158015612f05573d6000803e3d6000fd5b5050505050866001600160a01b031663ab1feac38288612f25919061403a565b60028b015460405160e084901b6001600160e01b03191681526001600160a01b0390911660048201526024016000604051808303818588803b158015612f6a57600080fd5b505af1158015612f7e573d6000803e3d6000fd5b50508a5460018c0154604051632142170760e11b81526001600160a01b0390921694506342842e0e9350612fba92503091339190600401613f15565b600060405180830381600087803b158015612fd457600080fd5b505af1158015612fe8573d6000803e3d6000fd5b50505050612ff660026139c5565b613004600380546001019055565b6001880154885460038a015460028b0154604080516001600160a01b039384168152602081018b9052918316828201525133949392909216917f72136ea02664c7ef94168318a5622b2f8cc9e3a3f2bfd6fbdff378aa303e4beb9181900360600190a4505050505050505050505050505050565b6001600160a01b03808416600090815260096020908152604080832086845282528083208486168452825291829020825160c08101845281548516815260018201549281019290925260028101548416928201929092526003820154909216606083015260048101546080830181905260059091015460ff16151560a08301528491849184919015801590613119575060408101516001600160a01b031615155b6131585760405162461bcd60e51b815260206004820152601060248201526f1b9bdd081bd999995c9c9959081b999d60821b6044820152606401610706565b6001600160a01b0380881660009081526008602090815260408083208a8452825291829020825160c08101845281548516815260018201549281019290925260028101548416928201839052600381015490931660608201526004830154608082015260059092015460ff16151560a083015288918891158015906131df57508060a00151155b6131fb5760405162461bcd60e51b815260040161070690613ffd565b6001600160a01b038a811660009081526008602090815260408083208d84529091529020600201541633146132655760405162461bcd60e51b815260206004820152601060248201526f3737ba103634b9ba32b21037bbb732b960811b6044820152606401610706565b6001600160a01b03808b1660009081526009602090815260408083208d845282528083208c8516845282528083208054909416835260088252808320600185015484529091529020600581015460ff16156132f15760405162461bcd60e51b815260206004820152600c60248201526b185b1c9958591e481cdbdb1960a21b6044820152606401610706565b600582015460ff161561333f5760405162461bcd60e51b81526020600482015260166024820152751bd999995c88185b1c9958591e481858d8d95c1d195960521b6044820152606401610706565b60058181018054600160ff199182168117909255918401805490921617905560048083015483546040805163257b706360e21b81529051929384936001600160a01b039093169260009284926395edc18c9282820192602092908290030181865afa1580156133b2573d6000803e3d6000fd5b505050506040513d601f19601f820116820180604052508101906133d69190613fe0565b90506000826001600160a01b031663820bdcdc6040518163ffffffff1660e01b8152600401602060405180830381865afa158015613418573d6000803e3d6000fd5b505050506040513d601f19601f8201168201806040525081019061343c9190614021565b60038801549091506001600160a01b031681156134e257600061345f8388612b2f565b60405163a9059cbb60e01b81529091506001600160a01b0383169063a9059cbb906134909087908590600401613f5b565b6020604051808303816000875af11580156134af573d6000803e3d6000fd5b505050506040513d601f19601f820116820180604052508101906134d39190613f39565b506134de818761403a565b9550505b60006134ed87610d2f565b60055460405163a9059cbb60e01b81529192506001600160a01b038085169263a9059cbb926135229216908590600401613f5b565b6020604051808303816000875af1158015613541573d6000803e3d6000fd5b505050506040513d601f19601f820116820180604052508101906135659190613f39565b5060028801546001600160a01b038084169163a9059cbb9116613588848a61403a565b6040518363ffffffff1660e01b81526004016135a5929190613f5b565b6020604051808303816000875af11580156135c4573d6000803e3d6000fd5b505050506040513d601f19601f820116820180604052508101906135e89190613f39565b50875460028a015460018a0154604051632142170760e11b81526001600160a01b03938416936342842e0e936136279330939290911691600401613f15565b600060405180830381600087803b15801561364157600080fd5b505af1158015613655573d6000803e3d6000fd5b5050505060028881015460018b01548b5460038d015460048e0154948e0154604080516001600160a01b03938416815260208101979097529082169086015292831693919216907f9e4a193680f4538a4b29d70aa5b240ca9068a1d971f7932be2c8b92e6c4b31ce9060600160405180910390a450505050505050505050505050505050505050565b6136e661396b565b6001600160a01b03811661374b5760405162461bcd60e51b815260206004820152602660248201527f4f776e61626c653a206e6577206f776e657220697320746865207a65726f206160448201526564647265737360d01b6064820152608401610706565b61375481613a1c565b50565b606060008060008490506000816001600160a01b031663d477a7126040518163ffffffff1660e01b8152600401602060405180830381865afa1580156137a1573d6000803e3d6000fd5b505050506040513d601f19601f820116820180604052508101906137c59190614021565b905060005b81811015613801576137dc87826127ff565b156137ef576137ec600186613efd565b94505b806137f981614051565b9150506137ca565b5060008467ffffffffffffffff81111561381d5761381d61406a565b60405190808252806020026020018201604052801561385657816020015b613843613a6c565b81526020019060019003908161383b5790505b50905060005b82811015612ac55761386e88826127ff565b15613959576001600160a01b038881166000908152600a60208181526040808420868552825292839020835161018081018552815486168152600182015492810192909252600281015485169382019390935260038301548416606082015260048301546080820152600583015460a0820152600683015460c0820152600783015460e0820152600883015484166101008201526009830154610120820152910154918216610140820152600160a01b90910460ff161515610160820152825183908790811061394057613940614080565b6020908102919091010152613956600186613efd565b94505b8061396381614051565b91505061385c565b6000546001600160a01b031633146120a35760405162461bcd60e51b815260206004820181905260248201527f4f776e61626c653a2063616c6c6572206973206e6f7420746865206f776e65726044820152606401610706565b805480613a145760405162461bcd60e51b815260206004820152601b60248201527f436f756e7465723a2064656372656d656e74206f766572666c6f7700000000006044820152606401610706565b600019019055565b600080546001600160a01b038381166001600160a01b0319831681178455604051919092169283917f8be0079c531659141344cd1fd0a4f28419497f9722a3daafe3b4186f6b6457e09190a35050565b60405180610180016040528060006001600160a01b031681526020016000815260200160006001600160a01b0316815260200160006001600160a01b031681526020016000815260200160008152602001600081526020016000815260200160006001600160a01b031681526020016000815260200160006001600160a01b031681526020016000151581525090565b6001600160a01b038116811461375457600080fd5b600080600060608486031215613b2657600080fd5b8335613b3181613afc565b95602085013595506040909401359392505050565b60008060408385031215613b5957600080fd5b8235613b6481613afc565b946020939093013593505050565b600060208284031215613b8457600080fd5b5035919050565b600080600080600080600060e0888a031215613ba657600080fd5b8735613bb181613afc565b9650602088013595506040880135613bc881613afc565b969995985095966060810135965060808101359560a0820135955060c0909101359350915050565b600060208284031215613c0257600080fd5b8135612b4881613afc565b60008060008060808587031215613c2357600080fd5b8435613c2e81613afc565b9350602085013592506040850135613c4581613afc565b9396929550929360600135925050565b80516001600160a01b03168252602081015160208301526040810151613c8660408401826001600160a01b03169052565b506060810151613ca160608401826001600160a01b03169052565b506080810151608083015260a081015160a083015260c081015160c083015260e081015160e083015261010080820151613ce5828501826001600160a01b03169052565b50506101208181015190830152610140808201516001600160a01b031690830152610160908101511515910152565b6101808101610d4c8284613c55565b6020808252825182820181905260009190848201906040850190845b81811015613d645783516001600160a01b031683529284019291840191600101613d3f565b50909695505050505050565b80516001600160a01b03908116835260208083015190840152604080830151821690840152606080830151909116908301526080808201519083015260a0908101511515910152565b6020808252825182820181905260009190848201906040850190845b81811015613d6457613de8838551613d70565b9284019260c09290920191600101613dd5565b60008060408385031215613e0e57600080fd5b50508035926020909101359150565b60c08101610d4c8284613d70565b600080600060608486031215613e4057600080fd5b8335613e4b81613afc565b9250602084013591506040840135613e6281613afc565b809150509250925092565b6020808252825182820181905260009190848201906040850190845b81811015613d6457613e9c838551613c55565b928401926101809290920191600101613e89565b60208082526017908201527f61756374696f6e20616c72656164792063726561746564000000000000000000604082015260600190565b634e487b7160e01b600052601160045260246000fd5b60008219821115613f1057613f10613ee7565b500190565b6001600160a01b039384168152919092166020820152604081019190915260600190565b600060208284031215613f4b57600080fd5b81518015158114612b4857600080fd5b6001600160a01b03929092168252602082015260400190565b6000816000190483118215151615613f8e57613f8e613ee7565b500290565b600082613fb057634e487b7160e01b600052601260045260246000fd5b500490565b60208082526011908201527034b73b30b634b2103830bc903a37b5b2b760791b604082015260600190565b600060208284031215613ff257600080fd5b8151612b4881613afc565b6020808252600a90820152691b9bdd081b1a5cdd195960b21b604082015260600190565b60006020828403121561403357600080fd5b5051919050565b60008282101561404c5761404c613ee7565b500390565b60006001820161406357614063613ee7565b5060010190565b634e487b7160e01b600052604160045260246000fd5b634e487b7160e01b600052603260045260246000fdfea26469706673582212207c7fffa8278732a7ebec3d28c16f520fe062fb24d6979a2d6a45f2639375f27864736f6c634300080d0033",
  "linkReferences": {},
  "deployedLinkReferences": {}
}