{
  "_format": "hh-sol-artifact-1",
  "contractName": "BoxBlockNFT",
  "sourceName": "contracts/BoxBlock.sol",
  "abi": [
    {
      "inputs": [
        {
          "internalType": "string",
          "name": "_name",
          "type": "string"
        },
        {
          "internalType": "string",
          "name": "_symbol",
          "type": "string"
        },
        {
          "internalType": "address",
          "name": "_owner",
          "type": "address"
        },
        {
          "internalType": "uint256",
          "name": "_royaltyFee",
          "type": "uint256"
        },
        {
          "internalType": "address",
          "name": "_royaltyRecipient",
          "type": "address"
        }
      ],
      "stateMutability": "nonpayable",
      "type": "constructor"
    },
    {
      "anonymous": false,
      "inputs": [
        {
          "indexed": true,
          "internalType": "address",
          "name": "owner",
          "type": "address"
        },
        {
          "indexed": true,
          "internalType": "address",
          "name": "approved",
          "type": "address"
        },
        {
          "indexed": true,
          "internalType": "uint256",
          "name": "tokenId",
          "type": "uint256"
        }
      ],
      "name": "Approval",
      "type": "event"
    },
    {
      "anonymous": false,
      "inputs": [
        {
          "indexed": true,
          "internalType": "address",
          "name": "owner",
          "type": "address"
        },
        {
          "indexed": true,
          "internalType": "address",
          "name": "operator",
          "type": "address"
        },
        {
          "indexed": false,
          "internalType": "bool",
          "name": "approved",
          "type": "bool"
        }
      ],
      "name": "ApprovalForAll",
      "type": "event"
    },
    {
      "anonymous": false,
      "inputs": [
        {
          "indexed": true,
          "internalType": "address",
          "name": "previousOwner",
          "type": "address"
        },
        {
          "indexed": true,
          "internalType": "address",
          "name": "newOwner",
          "type": "address"
        }
      ],
      "name": "OwnershipTransferred",
      "type": "event"
    },
    {
      "anonymous": false,
      "inputs": [
        {
          "indexed": true,
          "internalType": "address",
          "name": "from",
          "type": "address"
        },
        {
          "indexed": true,
          "internalType": "address",
          "name": "to",
          "type": "address"
        },
        {
          "indexed": true,
          "internalType": "uint256",
          "name": "tokenId",
          "type": "uint256"
        }
      ],
      "name": "Transfer",
      "type": "event"
    },
    {
      "inputs": [
        {
          "internalType": "address",
          "name": "to",
          "type": "address"
        },
        {
          "internalType": "uint256",
          "name": "tokenId",
          "type": "uint256"
        }
      ],
      "name": "approve",
      "outputs": [],
      "stateMutability": "nonpayable",
      "type": "function"
    },
    {
      "inputs": [
        {
          "internalType": "address",
          "name": "owner",
          "type": "address"
        }
      ],
      "name": "balanceOf",
      "outputs": [
        {
          "internalType": "uint256",
          "name": "",
          "type": "uint256"
        }
      ],
      "stateMutability": "view",
      "type": "function"
    },
    {
      "inputs": [
        {
          "internalType": "uint256",
          "name": "tokenId",
          "type": "uint256"
        }
      ],
      "name": "burn",
      "outputs": [],
      "stateMutability": "nonpayable",
      "type": "function"
    },
    {
      "inputs": [],
      "name": "calcTotalItems",
      "outputs": [
        {
          "internalType": "uint256",
          "name": "",
          "type": "uint256"
        }
      ],
      "stateMutability": "view",
      "type": "function"
    },
    {
      "inputs": [
        {
          "internalType": "uint256",
          "name": "tokenId",
          "type": "uint256"
        }
      ],
      "name": "getApproved",
      "outputs": [
        {
          "internalType": "address",
          "name": "",
          "type": "address"
        }
      ],
      "stateMutability": "view",
      "type": "function"
    },
    {
      "inputs": [],
      "name": "getMaxId",
      "outputs": [
        {
          "internalType": "uint256",
          "name": "",
          "type": "uint256"
        }
      ],
      "stateMutability": "view",
      "type": "function"
    },
    {
      "inputs": [],
      "name": "getRoyaltyFee",
      "outputs": [
        {
          "internalType": "uint256",
          "name": "",
          "type": "uint256"
        }
      ],
      "stateMutability": "view",
      "type": "function"
    },
    {
      "inputs": [],
      "name": "getRoyaltyRecipient",
      "outputs": [
        {
          "internalType": "address",
          "name": "",
          "type": "address"
        }
      ],
      "stateMutability": "view",
      "type": "function"
    },
    {
      "inputs": [
        {
          "internalType": "address",
          "name": "owner",
          "type": "address"
        },
        {
          "internalType": "address",
          "name": "operator",
          "type": "address"
        }
      ],
      "name": "isApprovedForAll",
      "outputs": [
        {
          "internalType": "bool",
          "name": "",
          "type": "bool"
        }
      ],
      "stateMutability": "view",
      "type": "function"
    },
    {
      "inputs": [],
      "name": "name",
      "outputs": [
        {
          "internalType": "string",
          "name": "",
          "type": "string"
        }
      ],
      "stateMutability": "view",
      "type": "function"
    },
    {
      "inputs": [
        {
          "internalType": "address",
          "name": "",
          "type": "address"
        },
        {
          "internalType": "address",
          "name": "",
          "type": "address"
        },
        {
          "internalType": "uint256",
          "name": "",
          "type": "uint256"
        },
        {
          "internalType": "bytes",
          "name": "",
          "type": "bytes"
        }
      ],
      "name": "onERC721Received",
      "outputs": [
        {
          "internalType": "bytes4",
          "name": "",
          "type": "bytes4"
        }
      ],
      "stateMutability": "pure",
      "type": "function"
    },
    {
      "inputs": [],
      "name": "owner",
      "outputs": [
        {
          "internalType": "address",
          "name": "",
          "type": "address"
        }
      ],
      "stateMutability": "view",
      "type": "function"
    },
    {
      "inputs": [
        {
          "internalType": "uint256",
          "name": "tokenId",
          "type": "uint256"
        }
      ],
      "name": "ownerOf",
      "outputs": [
        {
          "internalType": "address",
          "name": "",
          "type": "address"
        }
      ],
      "stateMutability": "view",
      "type": "function"
    },
    {
      "inputs": [],
      "name": "renounceOwnership",
      "outputs": [],
      "stateMutability": "nonpayable",
      "type": "function"
    },
    {
      "inputs": [
        {
          "internalType": "address",
          "name": "to",
          "type": "address"
        },
        {
          "internalType": "string",
          "name": "uri",
          "type": "string"
        }
      ],
      "name": "safeMint",
      "outputs": [
        {
          "internalType": "uint256",
          "name": "",
          "type": "uint256"
        }
      ],
      "stateMutability": "nonpayable",
      "type": "function"
    },
    {
      "inputs": [
        {
          "internalType": "address",
          "name": "from",
          "type": "address"
        },
        {
          "internalType": "address",
          "name": "to",
          "type": "address"
        },
        {
          "internalType": "uint256",
          "name": "tokenId",
          "type": "uint256"
        }
      ],
      "name": "safeTransferFrom",
      "outputs": [],
      "stateMutability": "nonpayable",
      "type": "function"
    },
    {
      "inputs": [
        {
          "internalType": "address",
          "name": "from",
          "type": "address"
        },
        {
          "internalType": "address",
          "name": "to",
          "type": "address"
        },
        {
          "internalType": "uint256",
          "name": "tokenId",
          "type": "uint256"
        },
        {
          "internalType": "bytes",
          "name": "data",
          "type": "bytes"
        }
      ],
      "name": "safeTransferFrom",
      "outputs": [],
      "stateMutability": "nonpayable",
      "type": "function"
    },
    {
      "inputs": [
        {
          "internalType": "address",
          "name": "operator",
          "type": "address"
        },
        {
          "internalType": "bool",
          "name": "approved",
          "type": "bool"
        }
      ],
      "name": "setApprovalForAll",
      "outputs": [],
      "stateMutability": "nonpayable",
      "type": "function"
    },
    {
      "inputs": [
        {
          "internalType": "bytes4",
          "name": "interfaceId",
          "type": "bytes4"
        }
      ],
      "name": "supportsInterface",
      "outputs": [
        {
          "internalType": "bool",
          "name": "",
          "type": "bool"
        }
      ],
      "stateMutability": "view",
      "type": "function"
    },
    {
      "inputs": [],
      "name": "symbol",
      "outputs": [
        {
          "internalType": "string",
          "name": "",
          "type": "string"
        }
      ],
      "stateMutability": "view",
      "type": "function"
    },
    {
      "inputs": [
        {
          "internalType": "uint256",
          "name": "tokenId",
          "type": "uint256"
        }
      ],
      "name": "tokenURI",
      "outputs": [
        {
          "internalType": "string",
          "name": "",
          "type": "string"
        }
      ],
      "stateMutability": "view",
      "type": "function"
    },
    {
      "inputs": [
        {
          "internalType": "address",
          "name": "from",
          "type": "address"
        },
        {
          "internalType": "address",
          "name": "to",
          "type": "address"
        },
        {
          "internalType": "uint256",
          "name": "tokenId",
          "type": "uint256"
        }
      ],
      "name": "transferFrom",
      "outputs": [],
      "stateMutability": "nonpayable",
      "type": "function"
    },
    {
      "inputs": [
        {
          "internalType": "address",
          "name": "newOwner",
          "type": "address"
        }
      ],
      "name": "transferOwnership",
      "outputs": [],
      "stateMutability": "nonpayable",
      "type": "function"
    },
    {
      "inputs": [
        {
          "internalType": "address",
          "name": "from",
          "type": "address"
        },
        {
          "internalType": "address",
          "name": "to",
          "type": "address"
        },
        {
          "internalType": "uint256",
          "name": "tokenId",
          "type": "uint256"
        }
      ],
      "name": "transferToken",
      "outputs": [],
      "stateMutability": "nonpayable",
      "type": "function"
    },
    {
      "inputs": [
        {
          "internalType": "uint256",
          "name": "_royaltyFee",
          "type": "uint256"
        }
      ],
      "name": "updateRoyaltyFee",
      "outputs": [],
      "stateMutability": "nonpayable",
      "type": "function"
    }
  ],
  "bytecode": "0x60806040523480156200001157600080fd5b50604051620020923803806200209283398101604081905262000034916200043a565b8451859085906200004d906000906020850190620002aa565b50805162000063906001906020840190620002aa565b505050620000806200007a6200017760201b60201c565b6200017b565b612710821115620000d85760405162461bcd60e51b815260206004820152601a60248201527f63616e2774206d6f7265207468616e2031302070657263656e7400000000000060448201526064015b60405180910390fd5b6001600160a01b038116620001415760405162461bcd60e51b815260206004820152602860248201527f54686520726f79616c747920726563697069656e742063616e27742062652030604482015267206164647265737360c01b6064820152608401620000cf565b600a829055600b80546001600160a01b0319166001600160a01b0383161790556200016c83620001cd565b50505050506200050f565b3390565b600780546001600160a01b038381166001600160a01b0319831681179093556040519116919082907f8be0079c531659141344cd1fd0a4f28419497f9722a3daafe3b4186f6b6457e090600090a35050565b620001d76200024c565b6001600160a01b0381166200023e5760405162461bcd60e51b815260206004820152602660248201527f4f776e61626c653a206e6577206f776e657220697320746865207a65726f206160448201526564647265737360d01b6064820152608401620000cf565b62000249816200017b565b50565b6007546001600160a01b03163314620002a85760405162461bcd60e51b815260206004820181905260248201527f4f776e61626c653a2063616c6c6572206973206e6f7420746865206f776e65726044820152606401620000cf565b565b828054620002b890620004d3565b90600052602060002090601f016020900481019282620002dc576000855562000327565b82601f10620002f757805160ff191683800117855562000327565b8280016001018555821562000327579182015b82811115620003275782518255916020019190600101906200030a565b506200033592915062000339565b5090565b5b808211156200033557600081556001016200033a565b634e487b7160e01b600052604160045260246000fd5b600082601f8301126200037857600080fd5b81516001600160401b038082111562000395576200039562000350565b604051601f8301601f19908116603f01168101908282118183101715620003c057620003c062000350565b81604052838152602092508683858801011115620003dd57600080fd5b600091505b83821015620004015785820183015181830184015290820190620003e2565b83821115620004135760008385830101525b9695505050505050565b80516001600160a01b03811681146200043557600080fd5b919050565b600080600080600060a086880312156200045357600080fd5b85516001600160401b03808211156200046b57600080fd5b6200047989838a0162000366565b965060208801519150808211156200049057600080fd5b506200049f8882890162000366565b945050620004b0604087016200041d565b925060608601519150620004c7608087016200041d565b90509295509295909350565b600181811c90821680620004e857607f821691505b6020821081036200050957634e487b7160e01b600052602260045260246000fd5b50919050565b611b73806200051f6000396000f3fe608060405234801561001057600080fd5b50600436106101735760003560e01c8063715018a6116100de578063b88d4fde11610097578063d477a71211610071578063d477a7121461033b578063e985e9c514610343578063f2fde38b1461037f578063f5537ede1461039257600080fd5b8063b88d4fde14610302578063c87b56dd14610315578063d204c45e1461032857600080fd5b8063715018a6146102b5578063820bdcdc146102bd5780638da5cb5b146102c557806395d89b41146102d657806395edc18c146102de578063a22cb465146102ef57600080fd5b806342842e0e1161013057806342842e0e1461024057806342966c68146102535780634e83be471461026657806359964a72146102795780636352211e1461028f57806370a08231146102a257600080fd5b806301ffc9a71461017857806306fdde03146101a0578063081812fc146101b5578063095ea7b3146101e0578063150b7a02146101f557806323b872dd1461022d575b600080fd5b61018b610186366004611576565b6103a5565b60405190151581526020015b60405180910390f35b6101a86103f7565b60405161019791906115eb565b6101c86101c33660046115fe565b610489565b6040516001600160a01b039091168152602001610197565b6101f36101ee366004611633565b6104b0565b005b61021461020336600461165d565b630a85bd0160e11b95945050505050565b6040516001600160e01b03199091168152602001610197565b6101f361023b3660046116f8565b6105ca565b6101f361024e3660046116f8565b6105fc565b6101f36102613660046115fe565b610617565b6101f36102743660046115fe565b610648565b6102816106a7565b604051908152602001610197565b6101c861029d3660046115fe565b6106d3565b6102816102b0366004611734565b610733565b6101f36107b9565b600a54610281565b6007546001600160a01b03166101c8565b6101a86107cd565b600b546001600160a01b03166101c8565b6101f36102fd36600461174f565b6107dc565b6101f3610310366004611817565b6107eb565b6101a86103233660046115fe565b610823565b610281610336366004611893565b61082e565b610281610879565b61018b6103513660046118f5565b6001600160a01b03918216600090815260056020908152604080832093909416825291909152205460ff1690565b6101f361038d366004611734565b610885565b6101f36103a03660046116f8565b6108fb565b60006001600160e01b031982166380ac58cd60e01b14806103d657506001600160e01b03198216635b5e139f60e01b145b806103f157506301ffc9a760e01b6001600160e01b03198316145b92915050565b60606000805461040690611928565b80601f016020809104026020016040519081016040528092919081815260200182805461043290611928565b801561047f5780601f106104545761010080835404028352916020019161047f565b820191906000526020600020905b81548152906001019060200180831161046257829003601f168201915b5050505050905090565b600061049482610964565b506000908152600460205260409020546001600160a01b031690565b60006104bb826106d3565b9050806001600160a01b0316836001600160a01b03160361052d5760405162461bcd60e51b815260206004820152602160248201527f4552433732313a20617070726f76616c20746f2063757272656e74206f776e656044820152603960f91b60648201526084015b60405180910390fd5b336001600160a01b038216148061054957506105498133610351565b6105bb5760405162461bcd60e51b815260206004820152603e60248201527f4552433732313a20617070726f76652063616c6c6572206973206e6f7420746f60448201527f6b656e206f776e6572206e6f7220617070726f76656420666f7220616c6c00006064820152608401610524565b6105c583836109c3565b505050565b6105d5335b82610a31565b6105f15760405162461bcd60e51b815260040161052490611962565b6105c5838383610ab0565b6105c5838383604051806020016040528060008152506107eb565b610620336105cf565b61063c5760405162461bcd60e51b815260040161052490611962565b61064581610c4c565b50565b610650610c63565b6127108111156106a25760405162461bcd60e51b815260206004820152601a60248201527f63616e2774206d6f7265207468616e2031302070657263656e740000000000006044820152606401610524565b600a55565b6000806106b360085490565b905060006106c060095490565b90506106cc81836119c6565b9250505090565b6000818152600260205260408120546001600160a01b0316806103f15760405162461bcd60e51b8152602060048201526018602482015277115490cdcc8c4e881a5b9d985b1a59081d1bdad95b88125160421b6044820152606401610524565b60006001600160a01b03821661079d5760405162461bcd60e51b815260206004820152602960248201527f4552433732313a2061646472657373207a65726f206973206e6f7420612076616044820152683634b21037bbb732b960b91b6064820152608401610524565b506001600160a01b031660009081526003602052604090205490565b6107c1610c63565b6107cb6000610cbd565b565b60606001805461040690611928565b6107e7338383610d0f565b5050565b6107f53383610a31565b6108115760405162461bcd60e51b815260040161052490611962565b61081d84848484610ddd565b50505050565b60606103f182610e10565b6000610838610c63565b600061084360085490565b9050610853600880546001019055565b61085d3382610f18565b6108678184610f32565b6108728460016107dc565b9392505050565b6000806103f160085490565b61088d610c63565b6001600160a01b0381166108f25760405162461bcd60e51b815260206004820152602660248201527f4f776e61626c653a206e6577206f776e657220697320746865207a65726f206160448201526564647265737360d01b6064820152608401610524565b61064581610cbd565b826001600160a01b031661090e826106d3565b6001600160a01b0316146105f15760405162461bcd60e51b815260206004820181905260248201527f46726f6d2061646472657373206d75737420626520746f6b656e206f776e65726044820152606401610524565b6000818152600260205260409020546001600160a01b03166106455760405162461bcd60e51b8152602060048201526018602482015277115490cdcc8c4e881a5b9d985b1a59081d1bdad95b88125160421b6044820152606401610524565b600081815260046020526040902080546001600160a01b0319166001600160a01b03841690811790915581906109f8826106d3565b6001600160a01b03167f8c5be1e5ebec7d5bd14f71427d1e84f3dd0314c0f7b2291e5b200ac8c7c3b92560405160405180910390a45050565b600080610a3d836106d3565b9050806001600160a01b0316846001600160a01b03161480610a8457506001600160a01b0380821660009081526005602090815260408083209388168352929052205460ff165b80610aa85750836001600160a01b0316610a9d84610489565b6001600160a01b0316145b949350505050565b826001600160a01b0316610ac3826106d3565b6001600160a01b031614610b275760405162461bcd60e51b815260206004820152602560248201527f4552433732313a207472616e736665722066726f6d20696e636f72726563742060448201526437bbb732b960d91b6064820152608401610524565b6001600160a01b038216610b895760405162461bcd60e51b8152602060048201526024808201527f4552433732313a207472616e7366657220746f20746865207a65726f206164646044820152637265737360e01b6064820152608401610524565b610b946000826109c3565b6001600160a01b0383166000908152600360205260408120805460019290610bbd9084906119c6565b90915550506001600160a01b0382166000908152600360205260408120805460019290610beb9084906119dd565b909155505060008181526002602052604080822080546001600160a01b0319166001600160a01b0386811691821790925591518493918716917fddf252ad1be2c89b69c2b068fc378daa952ba7f163c4a11628f55a4df523b3ef91a4505050565b610c5a600880546001019055565b61064581610fcc565b6007546001600160a01b031633146107cb5760405162461bcd60e51b815260206004820181905260248201527f4f776e61626c653a2063616c6c6572206973206e6f7420746865206f776e65726044820152606401610524565b600780546001600160a01b038381166001600160a01b0319831681179093556040519116919082907f8be0079c531659141344cd1fd0a4f28419497f9722a3daafe3b4186f6b6457e090600090a35050565b816001600160a01b0316836001600160a01b031603610d705760405162461bcd60e51b815260206004820152601960248201527f4552433732313a20617070726f766520746f2063616c6c6572000000000000006044820152606401610524565b6001600160a01b03838116600081815260056020908152604080832094871680845294825291829020805460ff191686151590811790915591519182527f17307eab39ab6107e8899845ad3d59bd9653f200f220920489ca2b5937696c31910160405180910390a3505050565b610de8848484610ab0565b610df48484848461100c565b61081d5760405162461bcd60e51b8152600401610524906119f5565b6060610e1b82610964565b60008281526006602052604081208054610e3490611928565b80601f0160208091040260200160405190810160405280929190818152602001828054610e6090611928565b8015610ead5780601f10610e8257610100808354040283529160200191610ead565b820191906000526020600020905b815481529060010190602001808311610e9057829003601f168201915b505050505090506000610ecb60408051602081019091526000815290565b90508051600003610edd575092915050565b815115610f0f578082604051602001610ef7929190611a47565b60405160208183030381529060405292505050919050565b610aa88461110d565b6107e7828260405180602001604052806000815250611180565b6000828152600260205260409020546001600160a01b0316610fad5760405162461bcd60e51b815260206004820152602e60248201527f45524337323155524953746f726167653a2055524920736574206f66206e6f6e60448201526d32bc34b9ba32b73a103a37b5b2b760911b6064820152608401610524565b600082815260066020908152604090912082516105c592840190611491565b610fd5816111b3565b60008181526006602052604090208054610fee90611928565b15905061064557600081815260066020526040812061064591611515565b60006001600160a01b0384163b1561110257604051630a85bd0160e11b81526001600160a01b0385169063150b7a0290611050903390899088908890600401611a76565b6020604051808303816000875af192505050801561108b575060408051601f3d908101601f1916820190925261108891810190611ab3565b60015b6110e8573d8080156110b9576040519150601f19603f3d011682016040523d82523d6000602084013e6110be565b606091505b5080516000036110e05760405162461bcd60e51b8152600401610524906119f5565b805181602001fd5b6001600160e01b031916630a85bd0160e11b149050610aa8565b506001949350505050565b606061111882610964565b600061112f60408051602081019091526000815290565b9050600081511161114f5760405180602001604052806000815250610872565b806111598461124e565b60405160200161116a929190611a47565b6040516020818303038152906040529392505050565b61118a838361134f565b611197600084848461100c565b6105c55760405162461bcd60e51b8152600401610524906119f5565b60006111be826106d3565b90506111cb6000836109c3565b6001600160a01b03811660009081526003602052604081208054600192906111f49084906119c6565b909155505060008281526002602052604080822080546001600160a01b0319169055518391906001600160a01b038416907fddf252ad1be2c89b69c2b068fc378daa952ba7f163c4a11628f55a4df523b3ef908390a45050565b6060816000036112755750506040805180820190915260018152600360fc1b602082015290565b8160005b811561129f578061128981611ad0565b91506112989050600a83611aff565b9150611279565b60008167ffffffffffffffff8111156112ba576112ba61178b565b6040519080825280601f01601f1916602001820160405280156112e4576020820181803683370190505b5090505b8415610aa8576112f96001836119c6565b9150611306600a86611b13565b6113119060306119dd565b60f81b81838151811061132657611326611b27565b60200101906001600160f81b031916908160001a905350611348600a86611aff565b94506112e8565b6001600160a01b0382166113a55760405162461bcd60e51b815260206004820181905260248201527f4552433732313a206d696e7420746f20746865207a65726f20616464726573736044820152606401610524565b6000818152600260205260409020546001600160a01b03161561140a5760405162461bcd60e51b815260206004820152601c60248201527f4552433732313a20746f6b656e20616c7265616479206d696e746564000000006044820152606401610524565b6001600160a01b03821660009081526003602052604081208054600192906114339084906119dd565b909155505060008181526002602052604080822080546001600160a01b0319166001600160a01b03861690811790915590518392907fddf252ad1be2c89b69c2b068fc378daa952ba7f163c4a11628f55a4df523b3ef908290a45050565b82805461149d90611928565b90600052602060002090601f0160209004810192826114bf5760008555611505565b82601f106114d857805160ff1916838001178555611505565b82800160010185558215611505579182015b828111156115055782518255916020019190600101906114ea565b5061151192915061154b565b5090565b50805461152190611928565b6000825580601f10611531575050565b601f01602090049060005260206000209081019061064591905b5b80821115611511576000815560010161154c565b6001600160e01b03198116811461064557600080fd5b60006020828403121561158857600080fd5b813561087281611560565b60005b838110156115ae578181015183820152602001611596565b8381111561081d5750506000910152565b600081518084526115d7816020860160208601611593565b601f01601f19169290920160200192915050565b60208152600061087260208301846115bf565b60006020828403121561161057600080fd5b5035919050565b80356001600160a01b038116811461162e57600080fd5b919050565b6000806040838503121561164657600080fd5b61164f83611617565b946020939093013593505050565b60008060008060006080868803121561167557600080fd5b61167e86611617565b945061168c60208701611617565b935060408601359250606086013567ffffffffffffffff808211156116b057600080fd5b818801915088601f8301126116c457600080fd5b8135818111156116d357600080fd5b8960208285010111156116e557600080fd5b9699959850939650602001949392505050565b60008060006060848603121561170d57600080fd5b61171684611617565b925061172460208501611617565b9150604084013590509250925092565b60006020828403121561174657600080fd5b61087282611617565b6000806040838503121561176257600080fd5b61176b83611617565b91506020830135801515811461178057600080fd5b809150509250929050565b634e487b7160e01b600052604160045260246000fd5b600067ffffffffffffffff808411156117bc576117bc61178b565b604051601f8501601f19908116603f011681019082821181831017156117e4576117e461178b565b816040528093508581528686860111156117fd57600080fd5b858560208301376000602087830101525050509392505050565b6000806000806080858703121561182d57600080fd5b61183685611617565b935061184460208601611617565b925060408501359150606085013567ffffffffffffffff81111561186757600080fd5b8501601f8101871361187857600080fd5b611887878235602084016117a1565b91505092959194509250565b600080604083850312156118a657600080fd5b6118af83611617565b9150602083013567ffffffffffffffff8111156118cb57600080fd5b8301601f810185136118dc57600080fd5b6118eb858235602084016117a1565b9150509250929050565b6000806040838503121561190857600080fd5b61191183611617565b915061191f60208401611617565b90509250929050565b600181811c9082168061193c57607f821691505b60208210810361195c57634e487b7160e01b600052602260045260246000fd5b50919050565b6020808252602e908201527f4552433732313a2063616c6c6572206973206e6f7420746f6b656e206f776e6560408201526d1c881b9bdc88185c1c1c9bdd995960921b606082015260800190565b634e487b7160e01b600052601160045260246000fd5b6000828210156119d8576119d86119b0565b500390565b600082198211156119f0576119f06119b0565b500190565b60208082526032908201527f4552433732313a207472616e7366657220746f206e6f6e20455243373231526560408201527131b2b4bb32b91034b6b83632b6b2b73a32b960711b606082015260800190565b60008351611a59818460208801611593565b835190830190611a6d818360208801611593565b01949350505050565b6001600160a01b0385811682528416602082015260408101839052608060608201819052600090611aa9908301846115bf565b9695505050505050565b600060208284031215611ac557600080fd5b815161087281611560565b600060018201611ae257611ae26119b0565b5060010190565b634e487b7160e01b600052601260045260246000fd5b600082611b0e57611b0e611ae9565b500490565b600082611b2257611b22611ae9565b500690565b634e487b7160e01b600052603260045260246000fdfea26469706673582212201f2114cc000954469016b2098f958959dd684ab02f0fddbb7c419552ec95872164736f6c634300080d0033",
  "linkReferences": {},
  "deployedLinkReferences": {}
}